:100000000C94D4000C94FC000C94FC000C94FC00A8
:100010000C94FC000C94FC000C94FC000C94FC0070
:100020000C94FC000C94FC000C947A050C94E905EB
:100030000C94FC000C94FC000C94FC000C94FC0050
:100040000C94FC000C94FC000C94FC000C94FC0040
:100050000C94FC000C94FC000C94FC000C941B0809
:100060000C94FC000C94FC000C94FC000C94FC0020
:100070000C94FC000C94FC000C94FC000C94FC0010
:100080000C94FC000C94FC000C94FC000C94FC0000
:100090000C94FC000C94FC000C94FC000C94FC00F0
:1000A0000C94FC000C9465080C94FC00000000000B
:1000B000240027002A002D00300000000000250049
:1000C00028002B002E003100000000002300260035
:1000D00029002C002F000404040404030405020278
:1000E00002020403020202020606060606060404D1
:1000F0000202020404040802011040804010204063
:10010000804080080204018040201002011080100D
:10011000204040200000000200090F0000030401FD
:10012000000C0000000000000000000000000000C3
:10013000000000080B000202020000090400000198
:10014000020200000524001001052401010104241D
:10015000020605240600010705810310004009047A
:100160000100020A00000007050202400000070526
:1001700083024000000403090412010002EF02019F
:100180004041233780000101020301417264756917
:100190006E6F204C4C430041726475696E6F204D48
:1001A0006963726F0000210911241FBECFEFDAE0EE
:1001B000DEBFCDBF11E0A0E0B1E0E8E8F4E102C0AD
:1001C00005900D92A237B107D9F722E0A2E7B1E07E
:1001D00001C01D92A53BB207E1F710E0C4EDD0E0ED
:1001E00004C02197FE010E943C0AC33DD107C9F714
:1001F0000E943C090C94420A0C940000FC0180917E
:100200006202882311F13FB7F89482E08093E900FD
:100210002091F200822F90E01816190614F481E064
:1002200090E0882339F0289A44E640936102409197
:10023000F1004083222339F02091F200211103C004
:100240002BE62093E8003FBF08958FEF9FEF0895BE
:100250002FB7F89483E08093E9009091E800892F0C
:10026000807295FF04C09091F20080E4891B2FBF3B
:1002700008958091590281110DC082E0809355024A
:1002800084E080935602109258021092570281E047
:100290008093590285E592E0089540914F02509174
:1002A000500220914D0230914E0242175307B4F490
:1002B0009091E8009570E1F39091E80092FD19C0EB
:1002C0008093F10080914F029091500201968F73BC
:1002D0009927892B19F48EEF8093E80080914F02C3
:1002E0009091500201969093500280934F0281E0CA
:1002F000089580E00895EF92FF920F931F93CF939C
:10030000DF93F82E192FE62E042F81E0860F880F39
:100310000E944D0183E00E944D01CF2DD12FEC0EA4
:10032000FD2EF11CCE15DF05B9F007FF13C0FE014D
:1003300084910E944D01182F80E00E944D0181237D
:1003400021968111EFCFDF91CF911F910F91FF90F7
:10035000EF9008958881EDCF81E0F5CFDF92EF92A5
:10036000FF920F931F93CF93DF93D82E8A01EB0157
:100370007B01E40EF51ECE15DF0559F0D7FE12C045
:10038000FE0184910E944D0121968111F4CF0FEF5F
:100390001FEFC801DF91CF911F910F91FF90EF9058
:1003A000DF9008958881EECF0F931F93CF93DF9353
:1003B0001F92CDB7DEB782E0898342E450E063E369
:1003C00071E080E80E94AE010E943901DC011296C2
:1003D0000D911C910115110589F0D801ED91FC9149
:1003E0000280F381E02DBE016F5F7F4FC801099548
:1003F00097FD04C0F80100851185ECCF89810F902D
:10040000DF91CF911F910F910895615030F02091AD
:10041000F100FC0120830196F8CF289A84E68093AE
:1004200061020895CF93DF931F92CDB7DEB7698342
:10043000DC01ED91FC910280F381E02D41E050E080
:10044000BE016F5F7F4F09950F90DF91CF910895A7
:1004500083E08093E9008091F200882319F08AE319
:100460008093E80008950E94280190E00895CF93BA
:10047000DF931F92CDB7DEB7FC018485958597FD8C
:1004800008C02FEF3FEF358724870F90DF91CF9182
:100490000895CE0101960E94FE00019719F489810A
:1004A00090E0F3CF8FEF9FEFF0CF0F931F93CF9399
:1004B000DF931F92CDB7DEB78C01FC018485958553
:1004C00097FF0BC0CE0101960E94FE00019771F4C8
:1004D000898190E0F80195878487F8018485958566
:1004E0000F90DF91CF911F910F9108958FEF9FEFA4
:1004F000F1CFFC018485958597FD0BC09FB7F894DB
:1005000082E08093E9008091F2009FBF90E0019625
:1005100008959FB7F89482E08093E9008091F200FB
:100520009FBF90E0089581508F3008F047C0E82FBA
:10053000F0E0E356FD4F0C943C0ABA02BE02AC0256
:10054000B202B602DE02DE02DE02C102C702CB0246
:10055000CF02D502DE02D902809180008F7780938E
:1005600080000895809180008F7DF9CF8091800078
:10057000877FF5CF84B58F7784BD089584B58F7D4F
:10058000FBCF809190008F778093900008958091A9
:1005900090008F7DF9CF80919000877FF5CF80917B
:1005A000C0008F778093C00008958091C0008F7D38
:1005B000F9CF8091C200877F8093C2000895CF93C6
:1005C000DF93282F30E0F901EC5EFE4F8491F901B2
:1005D000EB50FF4FD491F901EA52FF4FC491CC2365
:1005E000A1F081110E949302EC2FF0E0EE0FFF1FAB
:1005F000E853FF4FA591B491EC91ED2381E090E099
:1006000009F480E0DF91CF91089580E090E0FACF87
:100610001F93CF93DF93282F30E0F901EC5EFE4F5C
:100620008491F901EB50FF4FD491F901EA52FF4F49
:10063000C491CC23A9F0162F81110E949302EC2FB4
:10064000F0E0EE0FFF1FE654FF4FA591B4918FB776
:10065000F894EC91111108C0D095DE23DC938FBF84
:10066000DF91CF911F910895DE2BF8CFCF93DF93C9
:1006700090E0FC01EB50FF4F24918A529F4FFC0108
:1006800084918823D1F090E0880F991FFC01E455F4
:10069000FF4FA591B491FC01E654FF4FC591D49151
:1006A00061110EC09FB7F8948C91E22FE0958E23D4
:1006B0008C932881E223E8839FBFDF91CF91089537
:1006C0008FB7F894EC91E22BEC938FBFF6CF3FB746
:1006D000F8948091490290914A02A0914B02B09106
:1006E0004C0226B5A89B05C02F3F19F00196A11D0D
:1006F000B11D3FBFBA2FA92F982F8827BC01CD016C
:10070000620F711D811D911D42E0660F771F881FCA
:10071000991F4A95D1F708958F929F92AF92BF92F9
:10072000CF92DF92EF92FF924B015C010E94670330
:100730006B017C010E9467036C197D098E099F097A
:10074000683E734081059105A8F321E0821A910863
:10075000A108B10888EEC80E83E0D81EE11CF11C88
:1007600081149104A104B10429F7FF90EF90DF9068
:10077000CF90BF90AF909F908F9008958F929F924F
:10078000AF92BF92CF92DF92EF92FF920F931F939F
:10079000CF93DF936C017B018A0180910B01882349
:1007A00009F45CC080916202882309F457C08091EB
:1007B000530280FF05C08091E00082608093E000DA
:1007C000E801B12C8AEFA82E93E0892E2AE3922E1D
:1007D000209711F4BB20D9F10E94280181110AC091
:1007E000AA94AA20D9F161E070E080E090E00E9434
:1007F0008C03EECF8C171D0611F00CF08C2F9FB7D9
:10080000F8948092E9002091E80025FD02C09FBF86
:10081000DFCF282F30E0C21BD30BF701815020F02F
:1008200041914093F100FACFE20EF31EBB2021F07C
:100830009092E800B12CEBCF8091E80085FDE7CFE6
:100840009092E800BB24B394209709F3F3CF5D9A0C
:1008500084E680935202101611063CF081E090E08D
:10086000F6019383828310E000E0C801DF91CF910D
:100870001F910F91FF90EF90DF90CF90BF90AF90BE
:100880009F908F9008958F929F92AF92BF92CF9238
:10089000DF92EF92FF926B017C010E9467034B0194
:1008A0005C0184E0C81AD108E108F108C80CD91C21
:1008B000EA1CFB1CC814D904EA04FB0438F40E94A7
:1008C000670386169706A806B906C8F30E94670351
:1008D0006C157D058E059F05C8F3FF90EF90DF90A6
:1008E000CF90BF90AF909F908F9008952091C000BF
:1008F0002F772093C0008530910528F0BC0190E04F
:1009000080E00C9443040895E0ECF0E0208120683E
:100910002083BC0190E080E00C944304FC01019032
:100920000020E9F73197AF01481B590BBC0183E662
:1009300092E00C94BE03CF93DF930E948E04EC01EF
:1009400085E291E00E948E048C0F9D1FDF91CF9174
:1009500008953F924F925F926F927F928F929F92F3
:10096000AF92BF92CF92DF92EF92FF920F931F93BD
:10097000CF93DF93CDB7DEB7A1970FB6F894DEBF64
:100980000FBECDBF6B017C0188E291E00E948E0416
:1009900019A297018601CE018196B901A8014F7075
:1009A00055276627772764E036952795179507958D
:1009B0006A95D1F74A300CF094C0405DFC01429337
:1009C000CF01011511052105310539F7EF2B11F084
:1009D0000E948E0485E291E00E948E0403E010E004
:1009E00032E0932E42ED842E56E4352E10927200A2
:1009F00061E08091B3020E94360360E08091B3020F
:100A00000E9408039092C00081E08093C100109280
:100A1000C2008093C3001092C4001092BF00809265
:100A2000D1001092BF003092CF0088E293E20E9482
:100A3000840484E991E10E94760490E2A92EB12C0D
:100A4000412C512C612C20E8722ED701C601842143
:100A50009521A621B721892B8A2B8B2B09F443C022
:100A600080E392E00E9484048AE996E00E94760482
:100A70007694679457944794F1E0AF1AB10829F738
:100A800080E392E00E9484048091C0008F7780937D
:100A9000C00068E270E080E090E00E948C030150AA
:100AA000110909F0A3CF64E670E080E090E00E94B5
:100AB0008C03A1960FB6F894DEBF0FBECDBFDF91B9
:100AC000CF911F910F91FF90EF90DF90CF90BF904B
:100AD000AF909F908F907F906F905F904F903F90DE
:100AE0000895495C6BCF80E392E00E94840480E328
:100AF00092E0BCCF1F920F920FB60F9211248F93EA
:100B00009F938091E1009091E100937F9093E100A9
:100B100083FF0FC01092E90091E09093EB001092D8
:100B2000EC0092E39093ED001092620298E09093B3
:100B3000F00082FF22C093E09093E9009091F200D0
:100B4000992319F09AE39093E80090915202992327
:100B500041F090915202915090935202911101C034
:100B60005D9890916102992341F0909161029150BA
:100B700090936102911101C0289884FF18C0809160
:100B8000E2008E7E81608093E2008091E1008F7EA2
:100B90008093E100809153028E7E806180935302A6
:100BA0009F918F910F900FBE0F901F90189580FF0F
:100BB000F7CF8091E2008E7E80618093E200809189
:100BC000E1008E7E8093E100809153028E7E8160F1
:100BD000E5CF1F920F920FB60F921124CF92DF92A2
:100BE000EF92FF920F931F932F933F934F935F9337
:100BF0006F937F938F939F93AF93BF93EF93FF93E5
:100C0000CF93DF93CDB7DEB76C97DEBFCDBF109229
:100C1000E9008091E80083FF25C068E0CE01459699
:100C20000E94050282EF8093E8008D8987FF39C01A
:100C30009091E80090FFFCCF982F907609F034C196
:100C40009E894F89588D2F89F88C911131C0803839
:100C500061F5809154028093F1001092F1008EEFC3
:100C60008093E8006C960FB6F894DEBF0FBECDBF40
:100C7000DF91CF91FF91EF91BF91AF919F918F91B4
:100C80007F916F915F914F913F912F911F910F91A4
:100C9000FF90EF90DF90CF900F900FBE0F901F90BE
:100CA00018959EEF9093E800C7CF1092F100D5CF32
:100CB000913059F48111D3CF4130510581F68091A3
:100CC00054028D7F80935402CACF933049F481112E
:100CD000C6CF4130510519F6809154028260F2CF9F
:100CE000953041F48091E80080FFFCCF206820938C
:100CF000E300B5CF963009F0A9C00B8D1C8D22E022
:100D00001092E9001092500210924F02F2122EC07F
:100D100010924E0210924D020E94D4011F8299E05F
:100D20009983FA8291E09E8390EA98879AEF998757
:100D300020914F0230915002275F3F4F3C832B831D
:100D40008D831092E9001092500210924F0210937E
:100D50004E0200934D0249E050E0BE016F5F7F4FAD
:100D600080E00E94AE010E94D40179CF10934E0220
:100D700000934D020E943901DC0112960D911C91E5
:100D80000115110509F451C1D801ED91FC910480C0
:100D9000F581E02DBE016B5E7F4FC801099500977C
:100DA00009F03EC1F80100851185EACFF3E0FF129A
:100DB0000EC08F89882309F440C0823061F440E876
:100DC0006DE087E991E00E947B01811148CF81E2CB
:100DD0008093EB0047CF813029F440E86BE08BE84B
:100DE00091E0F1CF833099F70E943901DC0112962E
:100DF000ED90FC908E010F5F1F4F6801E114F1042C
:100E000079F0D701ED91FC910680F781E02DB801D2
:100E1000C7010995080F111DF701E084F184EECF99
:100E2000D8011C92F60101900020E9F73197BF012B
:100E30006C197D0940E0C601C6CF65E771E0FB0192
:100E4000449150E080E80E94AE0109CF973009F448
:100E5000BECF983021F481E08093F10000CF99302B
:100E600009F0FDCE837009F0B2CFEDE0F1E081E052
:100E700031E096E32191222371F08093E9003093D1
:100E8000EB00DF0111972C912093EC009093ED0083
:100E90008F5F873079F78EE78093EA001092EA003F
:100EA0008F8980936202DBCE8B8D9C8D1092E9003E
:100EB0001092500210924F0290934E0280934D0276
:100EC000898D811192C08E899D89913A49F4813230
:100ED00009F07DCF47E050E064E071E080E0B3CFFF
:100EE000913209F074CF833269F48F89988DB0E024
:100EF000A0E08093000190930101A0930201B093C0
:100F00000301ADCE803269F48091E80082FFFCCF0E
:100F100067E084E091E00E9405028BEF8093E80097
:100F20009ECE823209F09BCE8F8980930B01EEEF2B
:100F3000FFE7859194918B3F9C4D51F1E0E0F8E003
:100F40008091040190910501A0910601B0910701E3
:100F5000803B9440A105B105F1F480910B0180FD27
:100F60001AC0EE3F8AE0F80789F587E797E7918393
:100F70008083809160008093510288E19BE00FB6EE
:100F8000F894A895809360000FBE9093600067CEA0
:100F9000EEEFFAE0D5CF808191818737974709F04E
:100FA0005ECEA895809160008861809360008091FA
:100FB000510280936000EE3F2AE0F20789F08091B1
:100FC000FE0A9091FF0A9183808349CE80819181AE
:100FD0008737980751F29093FF0A8093FE0AC5CF96
:100FE0001092FF0A1092FE0A3ACE0E943901DC01EB
:100FF00012960D911C910115110509F4E8CED80146
:10100000ED91FC910190F081E02DBE016B5E7F4F70
:10101000C8010995811123CEF80100851185EBCF18
:10102000181619060CF41BCED2CEF1E0FF12BECE7C
:1010300069E771E004CF1F920F920FB60F9211244F
:101040002F933F938F939F93AF93BF9380914502CC
:1010500090914602A0914702B0914802309144021B
:1010600023E0230F2D3758F50196A11DB11D2093C4
:1010700044028093450290934602A0934702B093A6
:1010800048028091490290914A02A0914B02B0918E
:101090004C020196A11DB11D8093490290934A0212
:1010A000A0934B02B0934C02BF91AF919F918F914F
:1010B0003F912F910F900FBE0F901F90189526E82B
:1010C000230F0296A11DB11DD2CF1F920F920FB612
:1010D0000F9211242F933F934F935F936F937F93BE
:1010E0008F939F93AF93BF93EF93FF93809173017F
:1010F0000E94DF0220917701309178012F5F3F4FEE
:10110000309378012093770190917601953618F00D
:1011100096E09093720190917201943009F466C048
:10112000B8F49230F1F0933009F444C09091750115
:10113000992309F46BC081117AC0809174018823CE
:1011400009F463C08091740161E00E9408035EC0ED
:10115000953009F457C0963049F791E090934302D7
:101160004FC08111E3CF209177013091780124366F
:10117000310528F41092780110927701D7CF1092A0
:10118000430210927601E091760191E09E0F9093D8
:101190007601F0E02091770130917801EE0FFF1F8A
:1011A000EE58FE4F30872783109278011092770116
:1011B00093E019C0813009F0B9CFE091760191E058
:1011C0009E0F90937601F0E02091770130917801A5
:1011D000EE0FFF1FEE58FE4F3087278310927801E5
:1011E0001092770194E090937201A0CF882359F276
:1011F00020917701309178012536310508F496CF9A
:1012000095E0F1CF811192CFB5CF2D9AFF91EF915B
:10121000BF91AF919F918F917F916F915F914F910E
:101220003F912F910F900FBE0F901F9018958091B6
:101230007401882321F08091740160E086CF2D989D
:10124000E5CFE3E6F2E01382128288EE93E0A0E0BD
:10125000B0E084839583A683B78387E191E091838F
:1012600080838FEF9FEF958784878DE090E0909348
:10127000B4028093B3020895789484B5826084BDEB
:1012800084B5816084BD85B5826085BD85B581608A
:1012900085BD80916E00816080936E001092810008
:1012A00080918100826080938100809181008160C3
:1012B0008093810080918000816080938000809184
:1012C0009100826080939100809191008160809371
:1012D0009100809190008160809390008091C10086
:1012E00084608093C1008091C10082608093C100BE
:1012F0008091C10081608093C1008091C3008160B2
:101300008093C3008091C00082608093C000809170
:10131000C20081608093C20080917A0084608093D3
:101320007A0080917A00826080937A0080917A00BE
:10133000816080937A0080917A00806880937A003F
:101340001092620210925402109253028091D700C0
:1013500081608093D70080EA8093D80089B580614E
:1013600089BD89B5826089BD09B400FEFDCF61E009
:1013700070E080E090E00E948C038091D8008F7C28
:1013800080618093D8008091E000807F8093E000AE
:101390008091E1008E7E8093E1008DE08093E200F9
:1013A000559A209A5D9828988FEF9FEF909370023E
:1013B00080936F0260E084E00E94360360E085E085
:1013C0000E94360360E086E00E94360360E087E01A
:1013D0000E94360360E088E00E943603C0E0D0E05F
:1013E00084E00E94DF02019779F484E491E00E9496
:1013F0009B0467E278ED8FE790E80E94A9042097AC
:1014000079F30E940000ECCF85E00E94DF02019793
:1014100049F48DE491E00E949B0467E878E78FE748
:1014200090E8EBCF86E00E94DF02019749F486E561
:1014300091E00E949B046FE470EB8FE790E8DDCFB2
:1014400087E00E94DF02019749F48FE591E00E9456
:101450009B0467E878E48FE790E8CFCF88E00E94AC
:10146000DF02019761F688E691E00E949B0467EF36
:1014700078E08FE790E8C1CFEE0FFF1F0590F49161
:08148000E02D0994F894FFCF60
:10148800FFFFFFFF00E100000000000000C18081B5
:10149800000000000000001202BE03330228027997
:1014A80002370255020D0A0053656E64207369679E
:1014B8006E616C3A204E45432028333220626974AD
:1014C80073292000427574746F6E20310042757460
:1014D800746F6E203200427574746F6E2033004250
:1014E8007574746F6E203400427574746F6E203595
:0214F8000000F2
:00000001FF
